{
  "contractName": "Token",
  "abi": [
    {
      "inputs": [],
      "stateMutability": "nonpayable",
      "type": "constructor"
    },
    {
      "inputs": [],
      "name": "decimals",
      "outputs": [
        {
          "internalType": "uint256",
          "name": "",
          "type": "uint256"
        }
      ],
      "stateMutability": "view",
      "type": "function"
    },
    {
      "inputs": [],
      "name": "name",
      "outputs": [
        {
          "internalType": "string",
          "name": "",
          "type": "string"
        }
      ],
      "stateMutability": "view",
      "type": "function"
    },
    {
      "inputs": [],
      "name": "symbol",
      "outputs": [
        {
          "internalType": "string",
          "name": "",
          "type": "string"
        }
      ],
      "stateMutability": "view",
      "type": "function"
    },
    {
      "inputs": [],
      "name": "totalSupply",
      "outputs": [
        {
          "internalType": "uint256",
          "name": "",
          "type": "uint256"
        }
      ],
      "stateMutability": "view",
      "type": "function"
    }
  ],
  "bytecode": "0x60806040526040518060400160405280600a81526020017f64616e6b20746f6b656e000000000000000000000000000000000000000000008152506000908051906020019061004f9291906100d6565b506040518060400160405280600481526020017f44415050000000000000000000000000000000000000000000000000000000008152506001908051906020019061009b9291906100d6565b5060126002553480156100ad57600080fd5b50600254600a6100bd91906102e5565b620f42406100cb9190610330565b6003819055506103eb565b8280546100e2906103b9565b90600052602060002090601f016020900481019282610104576000855561014b565b82601f1061011d57805160ff191683800117855561014b565b8280016001018555821561014b579182015b8281111561014a57825182559160200191906001019061012f565b5b509050610158919061015c565b5090565b5b8082111561017557600081600090555060010161015d565b5090565b7f4e487b7100000000000000000000000000000000000000000000000000000000600052601160045260246000fd5b60008160011c9050919050565b6000808291508390505b60018511156101ff578086048111156101db576101da610179565b5b60018516156101ea5780820291505b80810290506101f8856101a8565b94506101bf565b94509492505050565b60008261021857600190506102d4565b8161022657600090506102d4565b816001811461023c576002811461024657610275565b60019150506102d4565b60ff84111561025857610257610179565b5b8360020a91508482111561026f5761026e610179565b5b506102d4565b5060208310610133831016604e8410600b84101617156102aa5782820a9050838111156102a5576102a4610179565b5b6102d4565b6102b784848460016101b5565b925090508184048111156102ce576102cd610179565b5b81810290505b9392505050565b6000819050919050565b60006102f0826102db565b91506102fb836102db565b92506103287fffffffffffffffffffffffffffffffffffffffffffffffffffffffffffffffff8484610208565b905092915050565b600061033b826102db565b9150610346836102db565b9250817fffffffffffffffffffffffffffffffffffffffffffffffffffffffffffffffff048311821515161561037f5761037e610179565b5b828202905092915050565b7f4e487b7100000000000000000000000000000000000000000000000000000000600052602260045260246000fd5b600060028204905060018216806103d157607f821691505b602082108114156103e5576103e461038a565b5b50919050565b610377806103fa6000396000f3fe608060405234801561001057600080fd5b506004361061004c5760003560e01c806306fdde031461005157806318160ddd1461006f578063313ce5671461008d57806395d89b41146100ab575b600080fd5b6100596100c9565b604051610066919061028a565b60405180910390f35b610077610157565b60405161008491906102c5565b60405180910390f35b61009561015d565b6040516100a291906102c5565b60405180910390f35b6100b3610163565b6040516100c0919061028a565b60405180910390f35b600080546100d69061030f565b80601f01602080910402602001604051908101604052809291908181526020018280546101029061030f565b801561014f5780601f106101245761010080835404028352916020019161014f565b820191906000526020600020905b81548152906001019060200180831161013257829003601f168201915b505050505081565b60035481565b60025481565b600180546101709061030f565b80601f016020809104026020016040519081016040528092919081815260200182805461019c9061030f565b80156101e95780601f106101be576101008083540402835291602001916101e9565b820191906000526020600020905b8154815290600101906020018083116101cc57829003601f168201915b505050505081565b600081519050919050565b600082825260208201905092915050565b60005b8381101561022b578082015181840152602081019050610210565b8381111561023a576000848401525b50505050565b6000601f19601f8301169050919050565b600061025c826101f1565b61026681856101fc565b935061027681856020860161020d565b61027f81610240565b840191505092915050565b600060208201905081810360008301526102a48184610251565b905092915050565b6000819050919050565b6102bf816102ac565b82525050565b60006020820190506102da60008301846102b6565b92915050565b7f4e487b7100000000000000000000000000000000000000000000000000000000600052602260045260246000fd5b6000600282049050600182168061032757607f821691505b6020821081141561033b5761033a6102e0565b5b5091905056fea26469706673582212203a400e889eabb11f30cb265d2aa88d9186985825709ea594e7bb6ae81ed716bc64736f6c634300080b0033",
  "immutableReferences": {},
  "source": "// SPDX-License-Identifier: MIT\r\npragma solidity <=0.9.0;\r\n\r\ncontract Token{\r\n    string public name=\"dank token\";\r\n    string public symbol=\"DAPP\";\r\n    uint256 public decimals=18;\r\n    uint256 public totalSupply;\r\n\r\n\r\n    constructor() { \r\n        totalSupply=1000000*(10**decimals);\r\n    }\r\n}\r\n",
  "sourcePath": "E:\\programming\\development and other\\blockchain development\\dapp university\\firstapp\\src\\contracts\\Token.sol",
  "compiler": {
    "name": "solc",
    "version": "0.8.11+commit.d7f03943.Emscripten.clang"
  },
  "schemaVersion": "3.4.4",
  "updatedAt": "2022-02-02T10:40:02.267Z",
  "devdoc": {
    "kind": "dev",
    "methods": {},
    "version": 1
  },
  "userdoc": {
    "kind": "user",
    "methods": {},
    "version": 1
  }
}